S00F0000494E535F4D454D2E73726563ED
S11300000C942A000C943F000C943F000C943F0085
S11300100C943F000C943F000C943F000C943F0060
S11300200C943F000C943F000C943F000C943F0050
S11300300C943F000C943F000C943F000C943F0040
S11300400C943F000C943F000C943F000C943F0030
S11300500C943F0011241FBECFE5D8E0DEBFCDBF16
S113006012E0A0E6B0E0E6EFF0E002C005900D92E9
S1130070A036B107D9F70E9441000C9479000C9482
S113008000008FEF8ABB17BA84BB81BB84B780683A
S113009084BF84B7806884BFE6B3F0E0EE0FFF1F2F
S11300A0E05AFF4F80818BBB818185BB30E081E0CA
S11300B090E050E840E008C0332311F0342F01C031
S11300C0352F32BB80E090E0E3ECF9E03197F1F7B3
S11300D000C00000E6B3F0E0EE0FFF1FE05AFF4F50
S11300E020812BBB218125BB01968436910561F7C4
S10900F0E3CFF894FFCFFA
S11300F623B035B031F234F152B4234322524114C1
S1130106412230A241042264418253C100A26116F5
S113011610466116304615E1106661B636736116EF
S113012672637046306661B63333306661B630A2A8
S113013631911311F0A001F000000000000000004E
S113014600000000000000000000000000000000A5
S11301560000000000000000000000000000000095
S11301660000000000000000000000000000000085
S11301760000000000000000000000000000000075
S11301860000000000000000000000000000000065
S11301960000000000000000000000000000000055
S11301A60000000000000000000000000000000045
S11301B60000000000000000000000000000000035
S11301C60000000000000000000000000000000025
S11301D60000000000000000000000000000000015
S11301E60000000000000000000000000000000005
S11301F600000000000000000000000000000000F5
S113020600000000000000000000000000000000E4
S113021600000000000000000000000000000000D4
S113022600000000000000000000000000000000C4
S113023600000000000000000000000000000000B4
S113024600000000000000000000000000000000A4
S11302560000000000000000000000000000000094
S11302660000000000000000000000000000000084
S11302760000000000000000000000000000000074
S11302860000000000000000000000000000000064
S11302960000000000000000000000000000000054
S11302A60000000000000000000000000000000044
S11302B60000000000000000000000000000000034
S11302C60000000000000000000000000000000024
S11302D60000000000000000000000000000000014
S11302E60000000000000000000000000000000004
S9030000FC
