:100000000C942A000C943C000C943C000C943C0092
:100010000C943C000C943C000C943C000C943C0070
:100020000C943C000C943C000C943C000C943C0060
:100030000C943C000C943C000C943C000C943C0050
:100040000C943C000C943C000C943C000C943C0040
:100050000C943C0011241FBECFE5D8E0DEBFCDBF1D
:1000600020E0A0E6B0E001C01D92A037B207E1F7A2
:100070000E943E000C94AC000C94000084B7806891
:1000800084BF84B7806884BF8FEF8ABB17BA14BA65
:1000900011BAE1E6F0E08EE081938150E8F7E0E606
:1000A000F0E010828FE08683C0E0D0E060E770E08F
:1000B000A6B310B383B3482F417050E082FF09C04C
:1000C000E0B3E295EF70F0E0E05AFF4F80818BBB28
:1000D0003BC083FF07C0E0E6F0E01192E617F707A8
:1000E000E1F732C0B0E09D0135952795359527950C
:1000F0003595279535952795205A3F4FF901208151
:10010000F0E12F9F90011124E12FF0E0EF70F078E3
:10011000E05AFF4F90819F70292B30782BBBCD2B5D
:1001200099F44130510581F481FF0EC0AF70B07871
:10013000A05ABF4F90E09595879595958795959591
:100140008795959587958C9383EC99E00197F1F7C6
:0C01500000C00000EA01ACCFF894FFCF23
:00000001FF
