:100000000C942A000C9434000C9434000C943400AA
:100010000C9434000C9434000C9434000C94340090
:100020000C9434000C9434000C9434000C94340080
:100030000C9434000C9434000C9434000C94340070
:100040000C9434000C9434000C9434000C94340060
:100050000C94340011241FBECFE5D8E0DEBFCDBF25
:100060000E9436000C94DE000C94000084B7806877
:1000700084BF84B7806884BF8FEF8ABB17BA14BA75
:1000800011BA81E08BBBE0E0F0E0D0E0A12C0F2EB4
:10009000FFE0BF2EF02DB1E0A0E000B386B3982FB3
:1000A0009F70E92EF12C86B382958F70282F30E057
:1000B000D0B2D4FA442740F950E0D5FA662760F967
:1000C00070E0C02FCB70CB3021F0102F1D7014309A
:1000D00031F4F701E20FF31FEF70FF2748C00F70F4
:1000E000CC24CA94C00EDD24D394DC1410F4C9309F
:1000F00031F4F701E21BF30BEF70FF2738C0202F1C
:1001000030E02530310549F4F70102C0EE0FFF1F42
:100110008A95E2F7EF70FF272AC02115310539F4DF
:10012000F70102C0F595E7958A95E2F720C0E02E29
:10013000F12CC7E0EC1AF108C2E0EC16F10420F44F
:100140008923E82FF0E013C01C3021F4892BE82F1D
:10015000F0E00DC02330310529F4E92FE82BEB2521
:10016000F0E005C02A30310511F4ED2FFA2D7F01A2
:100170008FE0E822FF248B2F9A2FE114F10411F075
:100180008D2F9A2D9C01242335238B2F9A2FEF2816
:1001900011F48D2F9A2D86239723822B932B8295F2
:1001A0009295907F9827807F98278E2B8BBB89E62E
:1001B00098E10197F1F700C000006FCFF894FFCFEE
:00000001FF
