:100000000C942A000C943C000C943C000C943C0092
:100010000C943C000C943C000C943C000C943C0070
:100020000C943C000C943C000C943C000C943C0060
:100030000C943C000C943C000C943C000C943C0050
:100040000C943C000C943C000C943C000C943C0040
:100050000C943C0011241FBECFE5D8E0DEBFCDBF1D
:1000600020E0A0E6B0E001C01D92A036B207E1F7A3
:100070000E943E000C94FF000C94000084B780683E
:1000800084BF84B7806884BF8FEF8ABB17BA14BA65
:1000900011BA91E09BBB88BB8FE082BB85BBE0E0DF
:1000A000F0E0D0E0A12C0F2EFFE0BF2EF02DB1E04C
:1000B000A0E080B396B3092F0F70E02EF12C96B319
:1000C00092959F70292F30E0D0B2D4FA442740F99E
:1000D00050E0D5FA662760F970E0C82FCB70CB30BE
:1000E00021F0182F1D70143069F4C701820F931F7F
:1000F0008F709078992324F40197806F9F6F0196F9
:10010000FC0156C08F70CC24CA94C80EDD24D39451
:10011000DC1410F4C93071F4C701821B930B4096B4
:100120008F709078992324F40197806F9F6F0196C8
:10013000FC013EC0282F30E0275031092230310524
:1001400020F49023E92FF0E033C01C3021F4902BF1
:10015000E92FF0E02DC0282F30E02330310529F4BD
:10016000902B9B25E92FF0E023C02530310589F441
:10017000970102C0220F331F9A95E2F7C9018F70D1
:100180009078992324F40197806F9F6F0196FC016A
:100190000FC02115310539F4F70102C0F595E79537
:1001A0009A95E2F705C02A30310511F4ED2FFA2DAA
:1001B0007F013FE0E322FF248B2F9A2FE114F1040B
:1001C00011F08D2F9A2D9C01242335238B2F9A2FEC
:1001D000EF2811F48D2F9A2D86239723822B932BB2
:1001E00082959295907F9827807F98278E2B8BBB46
:1001F00083EC99E00197F1F700C000005ACFF89422
:02020000FFCF2E
:00000001FF
