:100000000C942A000C943F000C943F000C943F0089
:100010000C943F000C943F000C943F000C943F0064
:100020000C943F000C943F000C943F000C943F0054
:100030000C943F000C943F000C943F000C943F0044
:100040000C943F000C943F000C943F000C943F0034
:100050000C943F0011241FBECFE5D8E0DEBFCDBF1A
:1000600010E0A0E6B0E0E8EDF0E002C005900D92EF
:10007000A038B107D9F70E9441000C946A000C9493
:1000800000008FEF8ABB17BA84BB11BA84B78068AF
:1000900084BF84B7806884BF86B38F70E82FF0E098
:1000A000EE0FFF1FE05AFF4F91819F708295807F76
:1000B000892B85BB80819181907899231CF40197CD
:1000C0009F6F01968BBB83EC99E00197F1F700C01D
:0800D0000000E2CFF894FFCF1D
:1000D800040D0403400206081001040B2C01040758
:1000E8000606800201000401060406020405060053
:00000001FF
