S015000052656769737465725F46696C652E73726563EB
S11300000C942A000C943C000C943C000C943C008E
S11300100C943C000C943C000C943C000C943C006C
S11300200C943C000C943C000C943C000C943C005C
S11300300C943C000C943C000C943C000C943C004C
S11300400C943C000C943C000C943C000C943C003C
S11300500C943C0011241FBECFE5D8E0DEBFCDBF19
S113006020E0A0E6B0E001C01D92A037B207E1F79E
S11300700E943E000C94A0000C94000084B7806899
S113008084BF84B7806884BF8FEF8ABB17BA14BA61
S113009011BAE1E6F0E040E750E01192E417F50709
S11300A0E1F7E0E6F0E010828FE08683C0E0D0E084
S11300B016B3E0B383B3282F217030E082FD38C03B
S11300C083FF07C0E0E6F0E01192E417F507E1F7DB
S11300D02FC0A12FB0E0B595A795B595A795B59577
S11300E0A795B595A795A05ABF4F6C9190E1699FCC
S11300F0B0011124EF70F0E0E05AFF4F90819F703F
S1130100692B6BBBCD2BA1F42130310589F481FF20
S11301100FC01F70E12FF0E0E05AFF4F90E095957B
S113012087959595879595958795959587958083DA
S113013089E698E10197F1F700C00000E901B8CF22
S1070140F894FFCF5D
S9030000FC
