S00E000050435F5245472E7372656346
S11300000C942A000C9434000C9434000C943400A6
S11300100C9434000C9434000C9434000C9434008C
S11300200C9434000C9434000C9434000C9434007C
S11300300C9434000C9434000C9434000C9434006C
S11300400C9434000C9434000C9434000C9434005C
S11300500C94340011241FBECFE5D8E0DEBFCDBF21
S11300600E9436000C9455000C9400002FEF2ABB1C
S113007017BA24BB11BA24B7206824BF24B7206858
S113008024BF40E050E001C0AC0120B3822F817056
S113009090E021FF02C01BBAF7CF41305105A1F710
S11100A0009791F726B32BBBEFCFF894FFCF58
S9030000FC
